{
  "contractName": "Heroes",
  "abi": [
    {
      "constant": true,
      "inputs": [
        {
          "name": "",
          "type": "uint256"
        }
      ],
      "name": "bosses",
      "outputs": [
        {
          "name": "tokenId",
          "type": "uint256"
        },
        {
          "name": "name",
          "type": "string"
        },
        {
          "name": "bossAttack",
          "type": "uint256"
        },
        {
          "name": "bossDefense",
          "type": "uint256"
        },
        {
          "name": "freeStatsAward",
          "type": "uint256"
        }
      ],
      "payable": false,
      "stateMutability": "view",
      "type": "function"
    },
    {
      "constant": false,
      "inputs": [],
      "name": "unpause",
      "outputs": [],
      "payable": false,
      "stateMutability": "nonpayable",
      "type": "function"
    },
    {
      "constant": true,
      "inputs": [],
      "name": "paused",
      "outputs": [
        {
          "name": "",
          "type": "bool"
        }
      ],
      "payable": false,
      "stateMutability": "view",
      "type": "function"
    },
    {
      "constant": false,
      "inputs": [],
      "name": "pause",
      "outputs": [],
      "payable": false,
      "stateMutability": "nonpayable",
      "type": "function"
    },
    {
      "constant": true,
      "inputs": [],
      "name": "owner",
      "outputs": [
        {
          "name": "",
          "type": "address"
        }
      ],
      "payable": false,
      "stateMutability": "view",
      "type": "function"
    },
    {
      "constant": true,
      "inputs": [],
      "name": "hotPotatoPhase",
      "outputs": [
        {
          "name": "",
          "type": "bool"
        }
      ],
      "payable": false,
      "stateMutability": "view",
      "type": "function"
    },
    {
      "constant": true,
      "inputs": [],
      "name": "NAME",
      "outputs": [
        {
          "name": "",
          "type": "string"
        }
      ],
      "payable": false,
      "stateMutability": "view",
      "type": "function"
    },
    {
      "constant": true,
      "inputs": [
        {
          "name": "",
          "type": "uint256"
        }
      ],
      "name": "levelTresholds",
      "outputs": [
        {
          "name": "",
          "type": "uint256"
        }
      ],
      "payable": false,
      "stateMutability": "view",
      "type": "function"
    },
    {
      "constant": true,
      "inputs": [
        {
          "name": "",
          "type": "uint256"
        }
      ],
      "name": "heroes",
      "outputs": [
        {
          "name": "tokenId",
          "type": "uint256"
        },
        {
          "name": "name",
          "type": "string"
        },
        {
          "name": "level",
          "type": "uint256"
        },
        {
          "name": "heroAttack",
          "type": "uint256"
        },
        {
          "name": "heroDefense",
          "type": "uint256"
        },
        {
          "name": "bounty",
          "type": "uint256"
        },
        {
          "name": "freeStats",
          "type": "uint256"
        },
        {
          "name": "battlesWon",
          "type": "uint256"
        },
        {
          "name": "battlesLost",
          "type": "uint256"
        },
        {
          "name": "lastTimeBought",
          "type": "uint256"
        }
      ],
      "payable": false,
      "stateMutability": "view",
      "type": "function"
    },
    {
      "constant": true,
      "inputs": [
        {
          "name": "",
          "type": "uint256"
        }
      ],
      "name": "heroIndexToOwner",
      "outputs": [
        {
          "name": "",
          "type": "address"
        }
      ],
      "payable": false,
      "stateMutability": "view",
      "type": "function"
    },
    {
      "constant": true,
      "inputs": [
        {
          "name": "",
          "type": "uint256"
        }
      ],
      "name": "heroIndexToApproved",
      "outputs": [
        {
          "name": "",
          "type": "address"
        }
      ],
      "payable": false,
      "stateMutability": "view",
      "type": "function"
    },
    {
      "constant": false,
      "inputs": [
        {
          "name": "newOwner",
          "type": "address"
        }
      ],
      "name": "transferOwnership",
      "outputs": [],
      "payable": false,
      "stateMutability": "nonpayable",
      "type": "function"
    },
    {
      "constant": true,
      "inputs": [],
      "name": "SYMBOL",
      "outputs": [
        {
          "name": "",
          "type": "string"
        }
      ],
      "payable": false,
      "stateMutability": "view",
      "type": "function"
    },
    {
      "inputs": [],
      "payable": false,
      "stateMutability": "nonpayable",
      "type": "constructor"
    },
    {
      "anonymous": false,
      "inputs": [
        {
          "indexed": false,
          "name": "tokenId",
          "type": "uint256"
        },
        {
          "indexed": false,
          "name": "name",
          "type": "string"
        },
        {
          "indexed": false,
          "name": "owner",
          "type": "address"
        }
      ],
      "name": "Birth",
      "type": "event"
    },
    {
      "anonymous": false,
      "inputs": [
        {
          "indexed": false,
          "name": "tokenId",
          "type": "uint256"
        },
        {
          "indexed": false,
          "name": "oldPrice",
          "type": "uint256"
        },
        {
          "indexed": false,
          "name": "newPrice",
          "type": "uint256"
        },
        {
          "indexed": false,
          "name": "prevOwner",
          "type": "address"
        },
        {
          "indexed": false,
          "name": "name",
          "type": "string"
        }
      ],
      "name": "TokenSold",
      "type": "event"
    },
    {
      "anonymous": false,
      "inputs": [
        {
          "indexed": false,
          "name": "from",
          "type": "address"
        },
        {
          "indexed": false,
          "name": "to",
          "type": "address"
        },
        {
          "indexed": false,
          "name": "tokenId",
          "type": "uint256"
        }
      ],
      "name": "Transfer",
      "type": "event"
    },
    {
      "anonymous": false,
      "inputs": [],
      "name": "StartHotPotato",
      "type": "event"
    },
    {
      "anonymous": false,
      "inputs": [],
      "name": "StopHotPotato",
      "type": "event"
    },
    {
      "anonymous": false,
      "inputs": [],
      "name": "Pause",
      "type": "event"
    },
    {
      "anonymous": false,
      "inputs": [],
      "name": "Unpause",
      "type": "event"
    },
    {
      "anonymous": false,
      "inputs": [
        {
          "indexed": true,
          "name": "previousOwner",
          "type": "address"
        },
        {
          "indexed": true,
          "name": "newOwner",
          "type": "address"
        }
      ],
      "name": "OwnershipTransferred",
      "type": "event"
    },
    {
      "anonymous": false,
      "inputs": [
        {
          "indexed": true,
          "name": "owner",
          "type": "address"
        },
        {
          "indexed": true,
          "name": "approved",
          "type": "address"
        },
        {
          "indexed": false,
          "name": "tokenId",
          "type": "uint256"
        }
      ],
      "name": "Approval",
      "type": "event"
    },
    {
      "constant": false,
      "inputs": [
        {
          "name": "_to",
          "type": "address"
        },
        {
          "name": "_tokenId",
          "type": "uint256"
        }
      ],
      "name": "approve",
      "outputs": [],
      "payable": false,
      "stateMutability": "nonpayable",
      "type": "function"
    },
    {
      "constant": true,
      "inputs": [
        {
          "name": "_owner",
          "type": "address"
        }
      ],
      "name": "balanceOf",
      "outputs": [
        {
          "name": "balance",
          "type": "uint256"
        }
      ],
      "payable": false,
      "stateMutability": "view",
      "type": "function"
    },
    {
      "constant": true,
      "inputs": [],
      "name": "implementsERC721",
      "outputs": [
        {
          "name": "",
          "type": "bool"
        }
      ],
      "payable": false,
      "stateMutability": "pure",
      "type": "function"
    },
    {
      "constant": true,
      "inputs": [
        {
          "name": "_tokenId",
          "type": "uint256"
        }
      ],
      "name": "ownerOf",
      "outputs": [
        {
          "name": "owner",
          "type": "address"
        }
      ],
      "payable": false,
      "stateMutability": "view",
      "type": "function"
    },
    {
      "constant": false,
      "inputs": [
        {
          "name": "_tokenId",
          "type": "uint256"
        }
      ],
      "name": "purchase",
      "outputs": [],
      "payable": true,
      "stateMutability": "payable",
      "type": "function"
    },
    {
      "constant": true,
      "inputs": [
        {
          "name": "_tokenId",
          "type": "uint256"
        }
      ],
      "name": "priceOf",
      "outputs": [
        {
          "name": "price",
          "type": "uint256"
        }
      ],
      "payable": false,
      "stateMutability": "view",
      "type": "function"
    },
    {
      "constant": false,
      "inputs": [
        {
          "name": "_tokenId",
          "type": "uint256"
        }
      ],
      "name": "takeOwnership",
      "outputs": [],
      "payable": false,
      "stateMutability": "nonpayable",
      "type": "function"
    },
    {
      "constant": true,
      "inputs": [
        {
          "name": "_owner",
          "type": "address"
        }
      ],
      "name": "tokensOfOwner",
      "outputs": [
        {
          "name": "ownerTokens",
          "type": "uint256[]"
        }
      ],
      "payable": false,
      "stateMutability": "view",
      "type": "function"
    },
    {
      "constant": true,
      "inputs": [],
      "name": "totalSupply",
      "outputs": [
        {
          "name": "total",
          "type": "uint256"
        }
      ],
      "payable": false,
      "stateMutability": "view",
      "type": "function"
    },
    {
      "constant": true,
      "inputs": [],
      "name": "totalBosses",
      "outputs": [
        {
          "name": "total",
          "type": "uint256"
        }
      ],
      "payable": false,
      "stateMutability": "view",
      "type": "function"
    },
    {
      "constant": false,
      "inputs": [
        {
          "name": "_to",
          "type": "address"
        },
        {
          "name": "_tokenId",
          "type": "uint256"
        }
      ],
      "name": "transfer",
      "outputs": [],
      "payable": false,
      "stateMutability": "nonpayable",
      "type": "function"
    },
    {
      "constant": false,
      "inputs": [
        {
          "name": "_from",
          "type": "address"
        },
        {
          "name": "_to",
          "type": "address"
        },
        {
          "name": "_tokenId",
          "type": "uint256"
        }
      ],
      "name": "transferFrom",
      "outputs": [],
      "payable": false,
      "stateMutability": "nonpayable",
      "type": "function"
    },
    {
      "constant": true,
      "inputs": [
        {
          "name": "_tokenId",
          "type": "uint256"
        }
      ],
      "name": "getHero",
      "outputs": [
        {
          "name": "tokenId",
          "type": "uint256"
        },
        {
          "name": "heroName",
          "type": "string"
        },
        {
          "name": "level",
          "type": "uint256"
        },
        {
          "name": "heroAttack",
          "type": "uint256"
        },
        {
          "name": "heroDefense",
          "type": "uint256"
        },
        {
          "name": "bounty",
          "type": "uint256"
        },
        {
          "name": "sellingPrice",
          "type": "uint256"
        },
        {
          "name": "owner",
          "type": "address"
        }
      ],
      "payable": false,
      "stateMutability": "view",
      "type": "function"
    },
    {
      "constant": true,
      "inputs": [
        {
          "name": "_tokenId",
          "type": "uint256"
        }
      ],
      "name": "getBoss",
      "outputs": [
        {
          "name": "tokenId",
          "type": "uint256"
        },
        {
          "name": "bossName",
          "type": "string"
        },
        {
          "name": "bossAttack",
          "type": "uint256"
        },
        {
          "name": "bossDefense",
          "type": "uint256"
        },
        {
          "name": "freeStatsAward",
          "type": "uint256"
        }
      ],
      "payable": false,
      "stateMutability": "view",
      "type": "function"
    },
    {
      "constant": false,
      "inputs": [
        {
          "name": "_name",
          "type": "string"
        }
      ],
      "name": "createHero",
      "outputs": [],
      "payable": false,
      "stateMutability": "nonpayable",
      "type": "function"
    },
    {
      "constant": false,
      "inputs": [
        {
          "name": "_name",
          "type": "string"
        },
        {
          "name": "_owner",
          "type": "address"
        }
      ],
      "name": "createHeroWithOwner",
      "outputs": [],
      "payable": false,
      "stateMutability": "nonpayable",
      "type": "function"
    },
    {
      "constant": false,
      "inputs": [
        {
          "name": "_name",
          "type": "string"
        },
        {
          "name": "_level",
          "type": "uint256"
        },
        {
          "name": "_heroAttack",
          "type": "uint256"
        },
        {
          "name": "_heroDefense",
          "type": "uint256"
        }
      ],
      "name": "createPremiumHero",
      "outputs": [],
      "payable": false,
      "stateMutability": "nonpayable",
      "type": "function"
    },
    {
      "constant": false,
      "inputs": [
        {
          "name": "_name",
          "type": "string"
        },
        {
          "name": "_owner",
          "type": "address"
        },
        {
          "name": "_level",
          "type": "uint256"
        },
        {
          "name": "_heroAttack",
          "type": "uint256"
        },
        {
          "name": "_heroDefense",
          "type": "uint256"
        }
      ],
      "name": "createPremiumHeroWithOwner",
      "outputs": [],
      "payable": false,
      "stateMutability": "nonpayable",
      "type": "function"
    },
    {
      "constant": false,
      "inputs": [
        {
          "name": "_name",
          "type": "string"
        },
        {
          "name": "_bossAttack",
          "type": "uint256"
        },
        {
          "name": "_bossDefense",
          "type": "uint256"
        },
        {
          "name": "_freeStatsAward",
          "type": "uint256"
        }
      ],
      "name": "createBoss",
      "outputs": [],
      "payable": false,
      "stateMutability": "nonpayable",
      "type": "function"
    },
    {
      "constant": false,
      "inputs": [
        {
          "name": "_tokenId",
          "type": "uint256"
        },
        {
          "name": "_newPrice",
          "type": "uint256"
        }
      ],
      "name": "modifyTokenPrice",
      "outputs": [],
      "payable": true,
      "stateMutability": "payable",
      "type": "function"
    },
    {
      "constant": false,
      "inputs": [
        {
          "name": "_tokenId",
          "type": "uint256"
        },
        {
          "name": "_statPoints",
          "type": "uint256"
        },
        {
          "name": "attackStat",
          "type": "bool"
        }
      ],
      "name": "upgradeStats",
      "outputs": [],
      "payable": true,
      "stateMutability": "payable",
      "type": "function"
    },
    {
      "constant": false,
      "inputs": [
        {
          "name": "_tokenId",
          "type": "uint256"
        },
        {
          "name": "_statPoints",
          "type": "uint256"
        },
        {
          "name": "attackStat",
          "type": "bool"
        }
      ],
      "name": "upgradeStatsFree",
      "outputs": [],
      "payable": false,
      "stateMutability": "nonpayable",
      "type": "function"
    },
    {
      "constant": false,
      "inputs": [
        {
          "name": "_tokenId",
          "type": "uint256"
        },
        {
          "name": "_toLevel",
          "type": "uint256"
        }
      ],
      "name": "multipleLevelUp",
      "outputs": [],
      "payable": false,
      "stateMutability": "nonpayable",
      "type": "function"
    },
    {
      "constant": false,
      "inputs": [
        {
          "name": "_heroId",
          "type": "uint256"
        },
        {
          "name": "_bossId",
          "type": "uint256"
        }
      ],
      "name": "attackBoss",
      "outputs": [],
      "payable": false,
      "stateMutability": "nonpayable",
      "type": "function"
    },
    {
      "constant": false,
      "inputs": [
        {
          "name": "_heroId",
          "type": "uint256"
        },
        {
          "name": "_targetHeroId",
          "type": "uint256"
        }
      ],
      "name": "attackPlayer",
      "outputs": [],
      "payable": false,
      "stateMutability": "nonpayable",
      "type": "function"
    },
    {
      "constant": false,
      "inputs": [
        {
          "name": "_tokenId",
          "type": "uint256"
        }
      ],
      "name": "claimOwnBounty",
      "outputs": [],
      "payable": false,
      "stateMutability": "nonpayable",
      "type": "function"
    },
    {
      "constant": true,
      "inputs": [
        {
          "name": "_tokenId",
          "type": "uint256"
        }
      ],
      "name": "lastTimeBought",
      "outputs": [
        {
          "name": "",
          "type": "uint256"
        }
      ],
      "payable": false,
      "stateMutability": "view",
      "type": "function"
    },
    {
      "constant": false,
      "inputs": [
        {
          "name": "_level",
          "type": "uint256"
        },
        {
          "name": "_expTreshold",
          "type": "uint256"
        }
      ],
      "name": "addModifyLevel",
      "outputs": [],
      "payable": false,
      "stateMutability": "nonpayable",
      "type": "function"
    },
    {
      "constant": false,
      "inputs": [],
      "name": "startHotPotato",
      "outputs": [],
      "payable": false,
      "stateMutability": "nonpayable",
      "type": "function"
    },
    {
      "constant": false,
      "inputs": [],
      "name": "stopHotPotato",
      "outputs": [],
      "payable": false,
      "stateMutability": "nonpayable",
      "type": "function"
    }
  ],
  "bytecode": "0x60806040526702c68af0bb14000060065566b1a2bc2ec5000060075566038d7ea4c680006008556000600955611c20600b5562093a80600c553480156200004557600080fd5b50336000806101000a81548173ffffffffffffffffffffffffffffffffffffffff021916908373ffffffffffffffffffffffffffffffffffffffff1602179055506200009f6200022e640100000000026401000000009004565b620000b8620002f0640100000000026401000000009004565b60086012600060018152602001908152602001600020819055506013601260006002815260200190815260200160002081905550602060126000600381526020019081526020016000208190555060316012600060048152602001908152602001600020819055506046601260006005815260200190815260200160002081905550605f601260006006815260200190815260200160002081905550607d60126000600781526020019081526020016000208190555060a160126000600881526020019081526020016000208190555060ca60126000600981526020019081526020016000208190555060fa60126000600a81526020019081526020016000208190555061013060126000600b81526020019081526020016000208190555061016e60126000600c8152602001908152602001600020819055506101b460126000600d81526020019081526020016000208190555061020260126000600e8152602001908152602001600020819055506200039c565b6000809054906101000a900473ffffffffffffffffffffffffffffffffffffffff1673ffffffffffffffffffffffffffffffffffffffff163373ffffffffffffffffffffffffffffffffffffffff161415156200028a57600080fd5b600060149054906101000a900460ff16151515620002a757600080fd5b6001600060146101000a81548160ff0219169083151502179055507f6985a02210a168e66602d3235cb6db0e70f92b3ba4d376a33c0f3d9434bff62560405160405180910390a1565b6000809054906101000a900473ffffffffffffffffffffffffffffffffffffffff1673ffffffffffffffffffffffffffffffffffffffff163373ffffffffffffffffffffffffffffffffffffffff161415156200034c57600080fd5b6001600a60006101000a81548160ff02191690831515021790555042600d819055507fd1b62a311f86cf01b3932bce394bb8a118dc3e3ec13c442308f8e1ff213fca7b60405160405180910390a1565b61380d80620003ac6000396000f30060806040526004361061020f576000357c0100000000000000000000000000000000000000000000000000000000900463ffffffff168063095ea7b3146102145780630e5ce5f9146102615780630e63c7ad1461028e578063101fcb22146103505780631051db341461038757806312607e0c146103b657806318160ddd1461043d578063204597e01461046857806321d801111461052a57806323b872dd1461062d57806333543a451461069a5780633e3b2993146106b15780633f4ba83a146106dc5780634142415d146106f35780635c975abb146107365780636352211e146107655780636a1ce199146107d25780636dc443501461080857806370a08231146108af578063740b74541461090657806378242aaf1461098d5780637918d00a146109f65780638456cb5914610a2d5780638462151c14610a445780638779b20814610adc5780638da5cb5b14610b135780638e479e0d14610b6a578063a3f4df7e14610b99578063a7fc753c14610c29578063a8d4a03b14610c6a578063a9059cbb14610d4f578063aa54beac14610d9c578063b2e6ceeb14610e09578063b59b0fc414610e36578063b9186d7d14610e60578063d000201314610ea1578063de3e305f14610ee2578063ea33018414610f4f578063efef39a114610f66578063f2fde38b14610f86578063f76f8d7814610fc9578063f8ae5f4114611059578063f8f697a914611090575b600080fd5b34801561022057600080fd5b5061025f600480360381019080803573ffffffffffffffffffffffffffffffffffffffff16906020019092919080359060200190929190505050611119565b005b34801561026d57600080fd5b5061028c600480360381019080803590602001909291905050506111e9565b005b34801561029a57600080fd5b506102b960048036038101908080359060200190929190505050611312565b6040518086815260200180602001858152602001848152602001838152602001828103825286818151815260200191508051906020019080838360005b838110156103115780820151818401526020810190506102f6565b50505050905090810190601f16801561033e5780820380516001836020036101000a031916815260200191505b50965050505050505060405180910390f35b34801561035c57600080fd5b5061038560048036038101908080359060200190929190803590602001909291905050506113f6565b005b34801561039357600080fd5b5061039c611506565b604051808215151515815260200191505060405180910390f35b3480156103c257600080fd5b5061043b600480360381019080803590602001908201803590602001908080601f016020809104026020016040519081016040528093929190818152602001838380828437820191505050505050919291929080359060200190929190803590602001909291908035906020019092919050505061150f565b005b34801561044957600080fd5b5061045261159c565b6040518082815260200191505060405180910390f35b34801561047457600080fd5b50610493600480360381019080803590602001909291905050506115a9565b6040518086815260200180602001858152602001848152602001838152602001828103825286818151815260200191508051906020019080838360005b838110156104eb5780820151818401526020810190506104d0565b50505050905090810190601f1680156105185780820380516001836020036101000a031916815260200191505b50965050505050505060405180910390f35b34801561053657600080fd5b5061055560048036038101908080359060200190929190505050611677565b60405180898152602001806020018881526020018781526020018681526020018581526020018481526020018373ffffffffffffffffffffffffffffffffffffffff1673ffffffffffffffffffffffffffffffffffffffff168152602001828103825289818151815260200191508051906020019080838360005b838110156105eb5780820151818401526020810190506105d0565b50505050905090810190601f1680156106185780820380516001836020036101000a031916815260200191505b50995050505050505050505060405180910390f35b34801561063957600080fd5b50610698600480360381019080803573ffffffffffffffffffffffffffffffffffffffff169060200190929190803573ffffffffffffffffffffffffffffffffffffffff169060200190929190803590602001909291905050506117b5565b005b3480156106a657600080fd5b506106af611803565b005b3480156106bd57600080fd5b506106c6611861565b6040518082815260200191505060405180910390f35b3480156106e857600080fd5b506106f161186e565b005b3480156106ff57600080fd5b50610734600480360381019080803590602001909291908035906020019092919080351515906020019092919050505061192c565b005b34801561074257600080fd5b5061074b611a81565b604051808215151515815260200191505060405180910390f35b34801561077157600080fd5b5061079060048036038101908080359060200190929190505050611a94565b604051808273ffffffffffffffffffffffffffffffffffffffff1673ffffffffffffffffffffffffffffffffffffffff16815260200191505060405180910390f35b6108066004803603810190808035906020019092919080359060200190929190803515159060200190929190505050611b0d565b005b34801561081457600080fd5b506108ad600480360381019080803590602001908201803590602001908080601f0160208091040260200160405190810160405280939291908181526020018383808284378201915050505050509192919290803573ffffffffffffffffffffffffffffffffffffffff169060200190929190803590602001909291908035906020019092919080359060200190929190505050611da2565b005b3480156108bb57600080fd5b506108f0600480360381019080803573ffffffffffffffffffffffffffffffffffffffff169060200190929190505050611e30565b6040518082815260200191505060405180910390f35b34801561091257600080fd5b5061098b600480360381019080803590602001908201803590602001908080601f0160208091040260200160405190810160405280939291908181526020018383808284378201915050505050509192919290803590602001909291908035906020019092919080359060200190929190505050611e79565b005b34801561099957600080fd5b506109f4600480360381019080803590602001908201803590602001908080601f0160208091040260200160405190810160405280939291908181526020018383808284378201915050505050509192919290505050611f02565b005b348015610a0257600080fd5b50610a2b6004803603810190808035906020019092919080359060200190929190505050611f8e565b005b348015610a3957600080fd5b50610a426121d6565b005b348015610a5057600080fd5b50610a85600480360381019080803573ffffffffffffffffffffffffffffffffffffffff169060200190929190505050612296565b6040518080602001828103825283818151815260200191508051906020019060200280838360005b83811015610ac8578082015181840152602081019050610aad565b505050509050019250505060405180910390f35b348015610ae857600080fd5b50610b116004803603810190808035906020019092919080359060200190929190505050612400565b005b348015610b1f57600080fd5b50610b2861266a565b604051808273ffffffffffffffffffffffffffffffffffffffff1673ffffffffffffffffffffffffffffffffffffffff16815260200191505060405180910390f35b348015610b7657600080fd5b50610b7f61268f565b604051808215151515815260200191505060405180910390f35b348015610ba557600080fd5b50610bae6126a2565b6040518080602001828103825283818151815260200191508051906020019080838360005b83811015610bee578082015181840152602081019050610bd3565b50505050905090810190601f168015610c1b5780820380516001836020036101000a031916815260200191505b509250505060405180910390f35b348015610c3557600080fd5b50610c54600480360381019080803590602001909291905050506126db565b6040518082815260200191505060405180910390f35b348015610c7657600080fd5b50610c95600480360381019080803590602001909291905050506126f3565b604051808b8152602001806020018a815260200189815260200188815260200187815260200186815260200185815260200184815260200183815260200182810382528b818151815260200191508051906020019080838360005b83811015610d0b578082015181840152602081019050610cf0565b50505050905090810190601f168015610d385780820380516001836020036101000a031916815260200191505b509b50505050505050505050505060405180910390f35b348015610d5b57600080fd5b50610d9a600480360381019080803573ffffffffffffffffffffffffffffffffffffffff169060200190929190803590602001909291905050506127df565b005b348015610da857600080fd5b50610dc760048036038101908080359060200190929190505050612817565b604051808273ffffffffffffffffffffffffffffffffffffffff1673ffffffffffffffffffffffffffffffffffffffff16815260200191505060405180910390f35b348015610e1557600080fd5b50610e346004803603810190808035906020019092919050505061284a565b005b610e5e60048036038101908080359060200190929190803590602001909291905050506128bf565b005b348015610e6c57600080fd5b50610e8b60048036038101908080359060200190929190505050612997565b6040518082815260200191505060405180910390f35b348015610ead57600080fd5b50610ecc600480360381019080803590602001909291905050506129b4565b6040518082815260200191505060405180910390f35b348015610eee57600080fd5b50610f0d600480360381019080803590602001909291905050506129d6565b604051808273ffffffffffffffffffffffffffffffffffffffff1673ffffffffffffffffffffffffffffffffffffffff16815260200191505060405180910390f35b348015610f5b57600080fd5b50610f64612a09565b005b610f8460048036038101908080359060200190929190505050612ab4565b005b348015610f9257600080fd5b50610fc7600480360381019080803573ffffffffffffffffffffffffffffffffffffffff169060200190929190505050612de9565b005b348015610fd557600080fd5b50610fde612f3e565b6040518080602001828103825283818151815260200191508051906020019080838360005b8381101561101e578082015181840152602081019050611003565b50505050905090810190601f16801561104b5780820380516001836020036101000a031916815260200191505b509250505060405180910390f35b34801561106557600080fd5b5061108e6004803603810190808035906020019092919080359060200190929190505050612f77565b005b34801561109c57600080fd5b50611117600480360381019080803590602001908201803590602001908080601f0160208091040260200160405190810160405280939291908181526020018383808284378201915050505050509192919290803573ffffffffffffffffffffffffffffffffffffffff169060200190929190505050613009565b005b6111233382613096565b151561112e57600080fd5b816003600083815260200190815260200160002060006101000a81548173ffffffffffffffffffffffffffffffffffffffff021916908373ffffffffffffffffffffffffffffffffffffffff1602179055508173ffffffffffffffffffffffffffffffffffffffff163373ffffffffffffffffffffffffffffffffffffffff167f8c5be1e5ebec7d5bd14f71427d1e84f3dd0314c0f7b2291e5b200ac8c7c3b925836040518082815260200191505060405180910390a35050565b6000813373ffffffffffffffffffffffffffffffffffffffff166001600083815260200190815260200160002060009054906101000a900473ffffffffffffffffffffffffffffffffffffffff1673ffffffffffffffffffffffffffffffffffffffff1614151561125957600080fd5b600e60008481526020019081526020016000209150600c54826009015401421015151561128557600080fd5b6001600084815260200190815260200160002060009054906101000a900473ffffffffffffffffffffffffffffffffffffffff1673ffffffffffffffffffffffffffffffffffffffff166108fc83600501549081150290604051600060405180830381858888f19350505050158015611302573d6000803e3d6000fd5b5060008260050181905550505050565b60006060600080600080600f6000888152602001908152602001600020905080600001549550806001018054600181600116156101000203166002900480601f0160208091040260200160405190810160405280929190818152602001828054600181600116156101000203166002900480156113d05780601f106113a5576101008083540402835291602001916113d0565b820191906000526020600020905b8154815290600101906020018083116113b357829003601f168201915b505050505094508060020154935080600301549250806004015491505091939590929450565b600080833373ffffffffffffffffffffffffffffffffffffffff166001600083815260200190815260200160002060009054906101000a900473ffffffffffffffffffffffffffffffffffffffff1673ffffffffffffffffffffffffffffffffffffffff1614151561146757600080fd5b600060149054906101000a900460ff1615151561148357600080fd5b600e600086815260200190815260200160002092508260020154841115156114aa57600080fd5b600060126000868152602001908152602001600020541115156114cc57600080fd5b826004015483600301540191506012600085815260200190815260200160002054821015156114ff578383600201819055505b5050505050565b60006001905090565b6000809054906101000a900473ffffffffffffffffffffffffffffffffffffffff1673ffffffffffffffffffffffffffffffffffffffff163373ffffffffffffffffffffffffffffffffffffffff1614151561156a57600080fd5b600060149054906101000a900460ff16151561158557600080fd5b6115958430600654868686613102565b5050505050565b6000601080549050905090565b600f602052806000526040600020600091509050806000015490806001018054600181600116156101000203166002900480601f01602080910402602001604051908101604052809291908181526020018280546001816001161561010002031660029004801561165b5780601f106116305761010080835404028352916020019161165b565b820191906000526020600020905b81548152906001019060200180831161163e57829003601f168201915b5050505050908060020154908060030154908060040154905085565b600060606000806000806000806000600e60008b8152602001908152602001600020905080600001549850806001018054600181600116156101000203166002900480601f01602080910402602001604051908101604052809291908181526020018280546001816001161561010002031660029004801561173a5780601f1061170f5761010080835404028352916020019161173a565b820191906000526020600020905b81548152906001019060200180831161171d57829003601f168201915b5050505050975080600201549650806003015495508060040154945080600501549350600460008b8152602001908152602001600020549250600160008b815260200190815260200160002060009054906101000a900473ffffffffffffffffffffffffffffffffffffffff16915050919395975091939597565b6117bf8382613096565b15156117ca57600080fd5b6117d48282613337565b15156117df57600080fd5b6117e8826133a3565b15156117f357600080fd5b6117fe8383836133dc565b505050565b600b54600d5401421015151561181857600080fd5b6000600a60006101000a81548160ff0219169083151502179055507fad501865223722ef4c211386de01c3fc7c753fc2126f34c86e3ee97756788ebf60405160405180910390a1565b6000601180549050905090565b6000809054906101000a900473ffffffffffffffffffffffffffffffffffffffff1673ffffffffffffffffffffffffffffffffffffffff163373ffffffffffffffffffffffffffffffffffffffff161415156118c957600080fd5b600060149054906101000a900460ff1615156118e457600080fd5b60008060146101000a81548160ff0219169083151502179055507f7805862f689e2f13df9f062ff482ad3ad112aca9e0847911ed832e158c525b3360405160405180910390a1565b600080843373ffffffffffffffffffffffffffffffffffffffff166001600083815260200190815260200160002060009054906101000a900473ffffffffffffffffffffffffffffffffffffffff1673ffffffffffffffffffffffffffffffffffffffff1614151561199d57600080fd5b600060149054906101000a900460ff161515156119b957600080fd5b600e60008781526020019081526020016000209250848360060154101515156119e157600080fd5b8315611a0b576119fe8584600301546135de90919063ffffffff16565b8360030181905550611a2b565b611a228584600401546135de90919063ffffffff16565b83600401819055505b8260040154836003015401915060126000846002015481526020019081526020016000205482101515611a7957611a70600184600201546135de90919063ffffffff16565b83600201819055505b505050505050565b600060149054906101000a900460ff1681565b60006001600083815260200190815260200160002060009054906101000a900473ffffffffffffffffffffffffffffffffffffffff169050600073ffffffffffffffffffffffffffffffffffffffff168173ffffffffffffffffffffffffffffffffffffffff1614151515611b0857600080fd5b919050565b600080600080600080883373ffffffffffffffffffffffffffffffffffffffff166001600083815260200190815260200160002060009054906101000a900473ffffffffffffffffffffffffffffffffffffffff1673ffffffffffffffffffffffffffffffffffffffff16141515611b8457600080fd5b600060149054906101000a900460ff16151515611ba057600080fd5b611bb56008548a6135fa90919063ffffffff16565b96508634141515611bc557600080fd5b600e60008b815260200190815260200160002095508715611c0457611bf78987600301546135de90919063ffffffff16565b8660030181905550611c24565b611c1b8987600401546135de90919063ffffffff16565b86600401819055505b8560040154866003015401945060126000876002015481526020019081526020016000205485101515611c7257611c69600187600201546135de90919063ffffffff16565b86600201819055505b611c9834600460008d8152602001908152602001600020546135de90919063ffffffff16565b600460008c815260200190815260200160002081905550611cc4611cbd3460646135fa565b6014613632565b9350611cdb611cd43460646135fa565b601e613632565b9250611cf2611ceb3460646135fa565b6032613632565b91506000809054906101000a900473ffffffffffffffffffffffffffffffffffffffff1673ffffffffffffffffffffffffffffffffffffffff166108fc859081150290604051600060405180830381858888f19350505050158015611d5b573d6000803e3d6000fd5b50611d71836009546135de90919063ffffffff16565b600981905550611d8e8287600501546135de90919063ffffffff16565b866005018190555050505050505050505050565b6000809054906101000a900473ffffffffffffffffffffffffffffffffffffffff1673ffffffffffffffffffffffffffffffffffffffff163373ffffffffffffffffffffffffffffffffffffffff16141515611dfd57600080fd5b600060149054906101000a900460ff161515611e1857600080fd5b611e288585600654868686613102565b505050505050565b6000600260008373ffffffffffffffffffffffffffffffffffffffff1673ffffffffffffffffffffffffffffffffffffffff168152602001908152602001600020549050919050565b6000809054906101000a900473ffffffffffffffffffffffffffffffffffffffff1673ffffffffffffffffffffffffffffffffffffffff163373ffffffffffffffffffffffffffffffffffffffff16141515611ed457600080fd5b600060149054906101000a900460ff161515611eef57600080fd5b611efb84848484613648565b5050505050565b6000809054906101000a900473ffffffffffffffffffffffffffffffffffffffff1673ffffffffffffffffffffffffffffffffffffffff163373ffffffffffffffffffffffffffffffffffffffff16141515611f5d57600080fd5b600060149054906101000a900460ff161515611f7857600080fd5b611f8a81306007546001600080613102565b5050565b6000806000843373ffffffffffffffffffffffffffffffffffffffff166001600083815260200190815260200160002060009054906101000a900473ffffffffffffffffffffffffffffffffffffffff1673ffffffffffffffffffffffffffffffffffffffff1614151561200157600080fd5b600060149054906101000a900460ff1615151561201d57600080fd5b600a60009054906101000a900460ff1615151561203957600080fd5b6001600086815260200190815260200160002060009054906101000a900473ffffffffffffffffffffffffffffffffffffffff1673ffffffffffffffffffffffffffffffffffffffff166001600088815260200190815260200160002060009054906101000a900473ffffffffffffffffffffffffffffffffffffffff1673ffffffffffffffffffffffffffffffffffffffff16141515156120da57600080fd5b600e60008781526020019081526020016000209350600e600086815260200190815260200160002092508260040154846003015411151561211a57600080fd5b61213361212c846005015460646135fa565b6019613632565b91506001600087815260200190815260200160002060009054906101000a900473ffffffffffffffffffffffffffffffffffffffff1673ffffffffffffffffffffffffffffffffffffffff166108fc839081150290604051600060405180830381858888f193505050501580156121ae573d6000803e3d6000fd5b506121c682846005015461372390919063ffffffff16565b8360050181905550505050505050565b6000809054906101000a900473ffffffffffffffffffffffffffffffffffffffff1673ffffffffffffffffffffffffffffffffffffffff163373ffffffffffffffffffffffffffffffffffffffff1614151561223157600080fd5b600060149054906101000a900460ff1615151561224d57600080fd5b6001600060146101000a81548160ff0219169083151502179055507f6985a02210a168e66602d3235cb6db0e70f92b3ba4d376a33c0f3d9434bff62560405160405180910390a1565b6060600060606000806000806122ab88611e30565b955060008614156122ee5760006040519080825280602002602001820160405280156122e65781602001602082028038833980820191505090505b5096506123f5565b8560405190808252806020026020018201604052801561231d5781602001602082028038833980820191505090505b50945061232861159c565b935060009250600091505b838210156123f15760108281548110151561234a57fe5b906000526020600020015490508773ffffffffffffffffffffffffffffffffffffffff166001600083815260200190815260200160002060009054906101000a900473ffffffffffffffffffffffffffffffffffffffff1673ffffffffffffffffffffffffffffffffffffffff1614156123e4578085848151811015156123cd57fe5b906020019060200201818152505082806001019350505b8180600101925050612333565b8496505b505050505050919050565b6000823373ffffffffffffffffffffffffffffffffffffffff166001600083815260200190815260200160002060009054906101000a900473ffffffffffffffffffffffffffffffffffffffff1673ffffffffffffffffffffffffffffffffffffffff1614151561247057600080fd5b600060149054906101000a900460ff1615151561248c57600080fd5b600a60009054906101000a900460ff161515156124a857600080fd5b60056000858152602001908152602001600020600084815260200190815260200160002060009054906101000a900460ff161515156124e657600080fd5b600f600084815260200190815260200160002060030154600e60008681526020019081526020016000206003015411151561252057600080fd5b61253761253060095460646135fa565b6003613632565b91506001600085815260200190815260200160002060009054906101000a900473ffffffffffffffffffffffffffffffffffffffff1673ffffffffffffffffffffffffffffffffffffffff166108fc839081150290604051600060405180830381858888f193505050501580156125b2573d6000803e3d6000fd5b506125f2600f600085815260200190815260200160002060040154600e6000878152602001908152602001600020600601546135de90919063ffffffff16565b600e6000868152602001908152602001600020600601819055506126218260095461372390919063ffffffff16565b600981905550600160056000868152602001908152602001600020600085815260200190815260200160002060006101000a81548160ff02191690831515021790555050505050565b6000809054906101000a900473ffffffffffffffffffffffffffffffffffffffff1681565b600a60009054906101000a900460ff1681565b6040805190810160405280600b81526020017f4574686572436f6d69637300000000000000000000000000000000000000000081525081565b60126020528060005260406000206000915090505481565b600e602052806000526040600020600091509050806000015490806001018054600181600116156101000203166002900480601f0160208091040260200160405190810160405280929190818152602001828054600181600116156101000203166002900480156127a55780601f1061277a576101008083540402835291602001916127a5565b820191906000526020600020905b81548152906001019060200180831161278857829003601f168201915b505050505090806002015490806003015490806004015490806005015490806006015490806007015490806008015490806009015490508a565b6127e93382613096565b15156127f457600080fd5b6127fd826133a3565b151561280857600080fd5b6128133383836133dc565b5050565b60016020528060005260406000206000915054906101000a900473ffffffffffffffffffffffffffffffffffffffff1681565b6000803391506001600084815260200190815260200160002060009054906101000a900473ffffffffffffffffffffffffffffffffffffffff16905061288f826133a3565b151561289a57600080fd5b6128a48284613337565b15156128af57600080fd5b6128ba8183856133dc565b505050565b813373ffffffffffffffffffffffffffffffffffffffff166001600083815260200190815260200160002060009054906101000a900473ffffffffffffffffffffffffffffffffffffffff1673ffffffffffffffffffffffffffffffffffffffff1614151561292d57600080fd5b600060149054906101000a900460ff1615151561294957600080fd5b6007548211151561295957600080fd5b60046000848152602001908152602001600020548210151561297a57600080fd5b816004600085815260200190815260200160002081905550505050565b600060046000838152602001908152602001600020549050919050565b6000600e60008381526020019081526020016000206009015442039050919050565b60036020528060005260406000206000915054906101000a900473ffffffffffffffffffffffffffffffffffffffff1681565b6000809054906101000a900473ffffffffffffffffffffffffffffffffffffffff1673ffffffffffffffffffffffffffffffffffffffff163373ffffffffffffffffffffffffffffffffffffffff16141515612a6457600080fd5b6001600a60006101000a81548160ff02191690831515021790555042600d819055507fd1b62a311f86cf01b3932bce394bb8a118dc3e3ec13c442308f8e1ff213fca7b60405160405180910390a1565b600080600080600080600060149054906101000a900460ff16151515612ad957600080fd5b600a60009054906101000a900460ff161515612af457600080fd5b6001600088815260200190815260200160002060009054906101000a900473ffffffffffffffffffffffffffffffffffffffff169550339450600460008881526020019081526020016000205493508473ffffffffffffffffffffffffffffffffffffffff168673ffffffffffffffffffffffffffffffffffffffff1614151515612b7e57600080fd5b600084111515612b8d57600080fd5b612b96856133a3565b1515612ba157600080fd5b833410151515612bb057600080fd5b612bc5612bbe856064613632565b605b6135fa565b9250612bd13485613723565b9150612be7612be08585613723565b6003613632565b90503073ffffffffffffffffffffffffffffffffffffffff168673ffffffffffffffffffffffffffffffffffffffff16141515612c6a578573ffffffffffffffffffffffffffffffffffffffff166108fc849081150290604051600060405180830381858888f19350505050158015612c64573d6000803e3d6000fd5b50612c77565b612c7481846135de565b90505b6000821115612cc8573373ffffffffffffffffffffffffffffffffffffffff166108fc839081150290604051600060405180830381858888f19350505050158015612cc6573d6000803e3d6000fd5b505b6000809054906101000a900473ffffffffffffffffffffffffffffffffffffffff1673ffffffffffffffffffffffffffffffffffffffff166108fc829081150290604051600060405180830381858888f19350505050158015612d2f573d6000803e3d6000fd5b50612d45816009546135de90919063ffffffff16565b600981905550612d7481600e60008a8152602001908152602001600020600501546135de90919063ffffffff16565b600e60008981526020019081526020016000206005018190555042600e600089815260200190815260200160002060090181905550612db48686896133dc565b612dc9612dc28560756135fa565b6064613632565b600460008981526020019081526020016000208190555050505050505050565b6000809054906101000a900473ffffffffffffffffffffffffffffffffffffffff1673ffffffffffffffffffffffffffffffffffffffff163373ffffffffffffffffffffffffffffffffffffffff16141515612e4457600080fd5b600073ffffffffffffffffffffffffffffffffffffffff168173ffffffffffffffffffffffffffffffffffffffff1614151515612e8057600080fd5b8073ffffffffffffffffffffffffffffffffffffffff166000809054906101000a900473ffffffffffffffffffffffffffffffffffffffff1673ffffffffffffffffffffffffffffffffffffffff167f8be0079c531659141344cd1fd0a4f28419497f9722a3daafe3b4186f6b6457e060405160405180910390a3806000806101000a81548173ffffffffffffffffffffffffffffffffffffffff021916908373ffffffffffffffffffffffffffffffffffffffff16021790555050565b6040805190810160405280600381526020017f45434f000000000000000000000000000000000000000000000000000000000081525081565b6000809054906101000a900473ffffffffffffffffffffffffffffffffffffffff1673ffffffffffffffffffffffffffffffffffffffff163373ffffffffffffffffffffffffffffffffffffffff16141515612fd257600080fd5b600060149054906101000a900460ff161515612fed57600080fd5b8060126000848152602001908152602001600020819055505050565b6000809054906101000a900473ffffffffffffffffffffffffffffffffffffffff1673ffffffffffffffffffffffffffffffffffffffff163373ffffffffffffffffffffffffffffffffffffffff1614151561306457600080fd5b600060149054906101000a900460ff16151561307f57600080fd5b61309182826007546001600080613102565b505050565b60006001600083815260200190815260200160002060009054906101000a900473ffffffffffffffffffffffffffffffffffffffff1673ffffffffffffffffffffffffffffffffffffffff168373ffffffffffffffffffffffffffffffffffffffff1614905092915050565b606060008060108054905091508163ffffffff168214151561312357600080fd5b429050610140604051908101604052808381526020018a81526020018781526020018681526020018581526020016000815260200160008152602001600081526020016000815260200182815250600e60008481526020019081526020016000206000820151816000015560208201518160010190805190602001906131aa92919061373c565b5060408201518160020155606082015181600301556080820151816004015560a0820151816005015560c0820151816006015560e08201518160070155610100820151816008015561012082015181600901559050507fb3b0cf861f168bcdb275c69da97b2543631552ba562628aa3c7317d4a6089ef2828a8a60405180848152602001806020018373ffffffffffffffffffffffffffffffffffffffff1673ffffffffffffffffffffffffffffffffffffffff168152602001828103825284818151815260200191508051906020019080838360005b8381101561329c578082015181840152602081019050613281565b50505050905090810190601f1680156132c95780820380516001836020036101000a031916815260200191505b5094505050505060405180910390a18660046000848152602001908152602001600020819055506132fc600089846133dc565b601082908060018154018082558091505090600182039060005260206000200160009091929091909150555088925050509695505050505050565b60008273ffffffffffffffffffffffffffffffffffffffff166003600084815260200190815260200160002060009054906101000a900473ffffffffffffffffffffffffffffffffffffffff1673ffffffffffffffffffffffffffffffffffffffff1614905092915050565b60008073ffffffffffffffffffffffffffffffffffffffff168273ffffffffffffffffffffffffffffffffffffffff1614159050919050565b600260008373ffffffffffffffffffffffffffffffffffffffff1673ffffffffffffffffffffffffffffffffffffffff16815260200190815260200160002060008154809291906001019190505550816001600083815260200190815260200160002060006101000a81548173ffffffffffffffffffffffffffffffffffffffff021916908373ffffffffffffffffffffffffffffffffffffffff160217905550600073ffffffffffffffffffffffffffffffffffffffff168373ffffffffffffffffffffffffffffffffffffffff1614151561353a57600260008473ffffffffffffffffffffffffffffffffffffffff1673ffffffffffffffffffffffffffffffffffffffff16815260200190815260200160002060008154809291906001900391905055506003600082815260200190815260200160002060006101000a81549073ffffffffffffffffffffffffffffffffffffffff02191690555b7fddf252ad1be2c89b69c2b068fc378daa952ba7f163c4a11628f55a4df523b3ef838383604051808473ffffffffffffffffffffffffffffffffffffffff1673ffffffffffffffffffffffffffffffffffffffff1681526020018373ffffffffffffffffffffffffffffffffffffffff1673ffffffffffffffffffffffffffffffffffffffff168152602001828152602001935050505060405180910390a1505050565b600081830190508281101515156135f157fe5b80905092915050565b60008083141561360d576000905061362c565b818302905081838281151561361e57fe5b0414151561362857fe5b8090505b92915050565b6000818381151561363f57fe5b04905092915050565b6060600060118054905090508063ffffffff168114151561366857600080fd5b60a06040519081016040528082815260200187815260200186815260200185815260200184815250600f60008381526020019081526020016000206000820151816000015560208201518160010190805190602001906136c992919061373c565b50604082015181600201556060820151816003015560808201518160040155905050601181908060018154018082558091505090600182039060005260206000200160009091929091909150555085915050949350505050565b600082821115151561373157fe5b818303905092915050565b828054600181600116156101000203166002900490600052602060002090601f016020900481019282601f1061377d57805160ff19168380011785556137ab565b828001600101855582156137ab579182015b828111156137aa57825182559160200191906001019061378f565b5b5090506137b891906137bc565b5090565b6137de91905b808211156137da5760008160009055506001016137c2565b5090565b905600a165627a7a723058200cb905d190a8ac12879e4054315f605f62dc9e7913aa03bbe4ff3379b6c262c80029",
  "source": "pragma solidity ^0.4.22;\r\n\r\nimport './ERC721.sol';\r\nimport './Pausable.sol';\r\nimport './SafeMath.sol';\r\n\r\ncontract Heroes is ERC721, Pausable {\r\n\tusing SafeMath for uint256;\r\n\r\n  \t/*** EVENTS ***/\r\n  \t// @dev The Birth event is fired whenever a new hero comes into existence.\r\n  \tevent Birth(uint256 tokenId, string name, address owner);\r\n\r\n  \t// @dev The TokenSold event is fired whenever a token is sold.\r\n  \tevent TokenSold(uint256 tokenId, uint256 oldPrice, uint256 newPrice, address prevOwner, string name);\r\n\r\n  \t// @dev Transfer event as defined in current draft of ERC721. Ownership is assigned, including births.\r\n  \tevent Transfer(address from, address to, uint256 tokenId);\r\n\r\n  \t/*** STORAGE ***/\r\n\r\n  \t// @dev A mapping from hero IDs to the address that owns them. All heroes have\r\n  \t//  some valid owner address.\r\n  \tmapping (uint256 => address) public heroIndexToOwner;\r\n\r\n  \t// @dev A mapping from owner address to count of tokens that address owns.\r\n  \t//  Used internally inside balanceOf() to resolve ownership count.\r\n  \tmapping (address => uint256) private ownershipTokenCount;\r\n\r\n  \t// @dev A mapping from HeroIDs to an address that has been approved to call\r\n  \t//  transferFrom(). Each Hero can only have one approved address for transfer\r\n  \t//  at any time. A zero value means no approval is outstanding.\r\n  \tmapping (uint256 => address) public heroIndexToApproved;\r\n\r\n  \t// @dev A mapping from HeroIDs to the price of the token.\r\n  \tmapping (uint256 => uint256) private heroIndexToPrice;\r\n\r\n  \t// @dev A mapping to check if Boss was attacked\r\n  \tmapping (uint256 => mapping (uint256 => bool) ) private bossDefeated;\r\n\r\n  \t/*** CONSTANTS, VARIABLES ***/\r\n\t// @notice Name and symbol of the non fungible token, as defined in ERC721.\r\n\tstring public constant NAME = \"EtherComics\"; // solhint-disable-line\r\n\tstring public constant SYMBOL = \"ECO\"; // solhint-disable-line\r\n\r\n\tuint256 private premiumPrice = 0.2 ether;\r\n  \tuint256 private startingPrice = 0.05 ether;\r\n  \tuint256 private statPrice = 0.001 ether;\r\n\r\n  \tuint256 private bossPool = 0;\r\n  \tbool public hotPotatoPhase;\r\n\r\n  \tuint256 hotPotatoCooldown = 2 hours;\r\n  \tuint256 canClaimCooldown = 7 days;\r\n  \tuint256 hotPotatoTimer;\r\n\r\n  \t/*** DATATYPES ***/\r\n  \tstruct Hero {\r\n  \t\tuint256 tokenId;\r\n    \tstring name;\r\n    \tuint256 level;\r\n    \tuint256 heroAttack;\r\n    \tuint256 heroDefense;\r\n    \tuint256 bounty;\r\n    \tuint256 freeStats;\r\n    \tuint256 battlesWon;\r\n    \tuint256 battlesLost;\r\n    \tuint256 lastTimeBought;\r\n  \t}\r\n\r\n  \tstruct Boss {\r\n  \t\tuint256 tokenId;\r\n    \tstring name;\r\n    \tuint256 bossAttack;\r\n    \tuint256 bossDefense;\r\n    \tuint256 freeStatsAward;\r\n  \t}\r\n\r\n  \tmapping(uint256 => Hero) public heroes;\r\n  \tmapping(uint256 => Boss) public bosses;\r\n\r\n  \tuint256[] tokens;\r\n  \tuint256[] gameBosses;\r\n  \t// all heroes start from level 1, threshold tells when to advance to higher level\r\n  \tmapping(uint256 => uint256) public levelTresholds;\r\n\r\n  \t/*** CONSTRUCTOR ***/\r\n  \tconstructor() public {\r\n  \t\tpause();\r\n  \t\tstartHotPotato();\r\n\r\n  \t\t// initialize starter levels (15), 100 points are equal to 0.1 ETH\r\n  \t\tlevelTresholds[1] = 8;\r\n  \t\tlevelTresholds[2] = 19;\r\n  \t\tlevelTresholds[3] = 32;\r\n  \t\tlevelTresholds[4] = 49;\r\n  \t\tlevelTresholds[5] = 70;\r\n  \t\tlevelTresholds[6] = 95;\r\n  \t\tlevelTresholds[7] = 125;\r\n  \t\tlevelTresholds[8] = 161;\r\n  \t\tlevelTresholds[9] = 202;\r\n  \t\t// levels 10 - 15 for comic maniacs\r\n  \t\tlevelTresholds[10] = 250;\r\n  \t\tlevelTresholds[11] = 304;\r\n  \t\tlevelTresholds[12] = 366;\r\n  \t\tlevelTresholds[13] = 436;\r\n  \t\tlevelTresholds[14] = 514;\r\n\r\n  \t\t// creating bosses (name, attack, def, freeStats)\r\n  \t\t// createBoss(\"1 Boss\", 1, 1, 3);\r\n  \t\t// createBoss(\"2 Boss\", 2, 2, 4);\r\n  \t\t// createBoss(\"3 Boss\", 3, 3, 5);\r\n\r\n  \t\t// createHero(\"1\");\r\n  \t\t// createHero(\"2\");\r\n  \t\t// createHero(\"3\");\r\n  \t\t// createHero(\"4\");\r\n  \t\t// createHero(\"5\");\r\n  \t\t// createHero(\"6\");\r\n  \t\t// createHero(\"7\");\r\n  \t\t// createHero(\"8\");\r\n  \t\t// createHero(\"9\");\r\n  \t\t// createHero(\"10\");\r\n  \t}\r\n\r\n  \t/*** PUBLIC FUNCTIONS ***/\r\n  \t// @notice Grant another address the right to transfer token via takeOwnership() and transferFrom().\r\n  \t// @param _to The address to be granted transfer approval. Pass address(0) to\r\n  \t//  clear all approvals.\r\n  \t// @param _tokenId The ID of the Token that can be transferred if this call succeeds.\r\n  \t// @dev Required for ERC-721 compliance.\r\n  \tfunction approve(address _to, uint256 _tokenId) public {\r\n  \t  \t// Caller must own token.\r\n  \t  \trequire(_owns(msg.sender, _tokenId));\r\n\t\r\n\t  \theroIndexToApproved[_tokenId] = _to;\r\n\t\r\n\t  \temit Approval(msg.sender, _to, _tokenId);\r\n  \t}\r\n\r\n  \t// For querying balance of a particular account\r\n  \t// @param _owner The address for balance query\r\n  \t// @dev Required for ERC-721 compliance.\r\n  \tfunction balanceOf(address _owner) public view returns (uint256 balance) {\r\n    \treturn ownershipTokenCount[_owner];\r\n  \t}\r\n\r\n  \tfunction implementsERC721() public pure returns (bool) {\r\n    \treturn true;\r\n  \t}\r\n\r\n  \t// For querying owner of token\r\n  \t// @param _tokenId The tokenID for owner inquiry\r\n  \t// @dev Required for ERC-721 compliance.\r\n  \tfunction ownerOf(uint256 _tokenId) public view returns (address owner) {\r\n    \towner = heroIndexToOwner[_tokenId];\r\n    \trequire(owner != address(0));\r\n  \t}\r\n\r\n  \t// Allows someone to send ether and obtain the token\r\n  \tfunction purchase(uint256 _tokenId) public payable whenNotPaused hotPotato {\r\n    \taddress oldOwner = heroIndexToOwner[_tokenId];\r\n    \taddress newOwner = msg.sender;\r\n\r\n    \tuint256 sellingPrice = heroIndexToPrice[_tokenId];\r\n    \t// Making sure token owner is not sending to self\r\n    \trequire(oldOwner != newOwner);\r\n    \trequire(sellingPrice > 0);\r\n\r\n    \t// Safety check to prevent against an unexpected 0x0 default.\r\n    \trequire(_addressNotNull(newOwner));\r\n\r\n    \t// Making sure sent amount is greater than or equal to the sellingPrice\r\n    \trequire(msg.value >= sellingPrice);\r\n\r\n    \tuint256 ownerPayout = SafeMath.mul(SafeMath.div(sellingPrice, 100), 91);\r\n    \tuint256 purchaseExcess = SafeMath.sub(msg.value, sellingPrice);\r\n\r\n    \t// fee = 3% ( (100 - 91) / 3 )\r\n    \tuint256\tfee = SafeMath.div(SafeMath.sub(sellingPrice, ownerPayout), 3);\r\n\r\n    \t// Pay previous tokenOwner if owner is not contract\r\n    \t// and if previous price is not 0\r\n    \tif (oldOwner != address(this)) {\r\n      \t\t// old owner gets entire initial payment back\r\n      \t\toldOwner.transfer(ownerPayout);\r\n    \t} else {\r\n      \t\tfee = SafeMath.add(fee, ownerPayout);\r\n    \t}\r\n\t        \r\n    \tif (purchaseExcess > 0) {\r\n    \t\tmsg.sender.transfer(purchaseExcess);\r\n    \t}\r\n\r\n    \t// transfer fee, and add to bounties\r\n    \towner.transfer(fee);\r\n\t\tbossPool = bossPool.add(fee);\r\n\t\theroes[_tokenId].bounty = heroes[_tokenId].bounty.add(fee);\r\n\t\theroes[_tokenId].lastTimeBought = now;\r\n\r\n    \t_transfer(oldOwner, newOwner, _tokenId);\r\n\r\n    \t//TokenSold(_tokenId, sellingPrice, heroIndexToPrice[_tokenId], oldOwner, newOwner, heroes[_tokenId].name);\r\n\r\n    \t// Update price\r\n      \theroIndexToPrice[_tokenId] = SafeMath.div(SafeMath.mul(sellingPrice, 117), 100);\r\n  \t}\r\n\r\n  \tfunction priceOf(uint256 _tokenId) public view returns (uint256 price) {\r\n\t    return heroIndexToPrice[_tokenId];\r\n  \t}\r\n\r\n  \t// @notice Allow pre-approved user to take ownership of a token\r\n  \t// @param _tokenId The ID of the Token that can be transferred if this call succeeds.\r\n  \t// @dev Required for ERC-721 compliance.\r\n  \tfunction takeOwnership(uint256 _tokenId) public {\r\n    \taddress newOwner = msg.sender;\r\n    \taddress oldOwner = heroIndexToOwner[_tokenId];\r\n\r\n    \t// Safety check to prevent against an unexpected 0x0 default.\r\n    \trequire(_addressNotNull(newOwner));\r\n\r\n    \t// Making sure transfer is approved\r\n    \trequire(_approved(newOwner, _tokenId));\r\n\r\n    \t_transfer(oldOwner, newOwner, _tokenId);\r\n  \t}\r\n\r\n  \t// @param _owner The owner whose hero tokens we are interested in.\r\n  \t// @dev This method MUST NEVER be called by smart contract code. First, it's fairly\r\n  \t//  expensive (it walks the entire Heroes array looking for heroes belonging to owner),\r\n  \t//  but it also returns a dynamic array, which is only supported for web3 calls, and\r\n  \t//  not contract-to-contract calls.\r\n  \tfunction tokensOfOwner(address _owner) public view returns(uint256[] ownerTokens) {\r\n    \tuint256 tokenCount = balanceOf(_owner);\r\n    \tif (tokenCount == 0) {\r\n        \t// Return an empty array\r\n      \t\treturn new uint256[](0);\r\n    \t} else {\r\n      \t\tuint256[] memory result = new uint256[](tokenCount);\r\n      \t\tuint256 totalHeroes = totalSupply();\r\n      \t\tuint256 resultIndex = 0;\r\n      \t\tuint256 heroId;\r\n      \t\tfor (heroId = 0; heroId < totalHeroes; heroId++) {\r\n      \t\t\tuint256 tokenId = tokens[heroId];\r\n\r\n\t\t        if (heroIndexToOwner[tokenId] == _owner) {\r\n\t\t          result[resultIndex] = tokenId;\r\n\t\t          resultIndex++;\r\n\t\t        }\r\n      \t\t}\r\n      \t\treturn result;\r\n    \t}\r\n  \t}\r\n\r\n  \t// For querying totalSupply of token\r\n  \t// @dev Required for ERC-721 compliance.\r\n  \tfunction totalSupply() public view returns (uint256 total) {\r\n    \treturn tokens.length;\r\n  \t}\r\n\r\n  \t// For querying total bosses in game\r\n  \tfunction totalBosses() public view returns (uint256 total) {\r\n    \treturn gameBosses.length;\r\n  \t}\r\n\r\n  \t// Owner initates the transfer of the token to another account\r\n  \t// @param _to The address for the token to be transferred to.\r\n  \t// @param _tokenId The ID of the Token that can be transferred if this call succeeds.\r\n  \t// @dev Required for ERC-721 compliance.\r\n  \tfunction transfer( address _to, uint256 _tokenId ) public {\r\n   \t\trequire(_owns(msg.sender, _tokenId));\r\n    \trequire(_addressNotNull(_to));\r\n    \t_transfer(msg.sender, _to, _tokenId);\r\n  \t}\r\n\r\n  \t// Third-party initiates transfer of token from address _from to address _to\r\n  \t// @param _from The address for the token to be transferred from.\r\n  \t// @param _to The address for the token to be transferred to.\r\n  \t// @param _tokenId The ID of the Token that can be transferred if this call succeeds.\r\n  \t// @dev Required for ERC-721 compliance.\r\n  \tfunction transferFrom( address _from, address _to, uint256 _tokenId) public {\r\n    \trequire(_owns(_from, _tokenId));\r\n    \trequire(_approved(_to, _tokenId));\r\n    \trequire(_addressNotNull(_to));\r\n    \t_transfer(_from, _to, _tokenId);\r\n  \t}\r\n\r\n  \t/*** PRIVATE FUNCTIONS ***/\r\n  \t// Safety check on _to address to prevent against an unexpected 0x0 default.\r\n  \tfunction _addressNotNull(address _to) private pure returns (bool) {\r\n    \treturn _to != address(0);\r\n  \t}\r\n\r\n  \t// For checking approval of transfer for address _to\r\n\tfunction _approved(address _to, uint256 _tokenId) private view returns (bool) {\r\n\t\treturn heroIndexToApproved[_tokenId] == _to;\r\n\t}\r\n\r\n  \t// Check for token ownership\r\n  \tfunction _owns(address claimant, uint256 _tokenId) private view returns (bool) {\r\n    \treturn claimant == heroIndexToOwner[_tokenId];\r\n  \t}\r\n\r\n  \t// @dev Assigns ownership of a specific Hero to an address.\r\n  \tfunction _transfer(address _from, address _to, uint256 _tokenId) private {\r\n  \t  \t// Since the number of heroes is capped to 2^32 we can't overflow this\r\n  \t  \townershipTokenCount[_to]++;\r\n  \t  \t//transfer ownership\r\n  \t  \theroIndexToOwner[_tokenId] = _to;\r\n  \t  \t// When creating new heroes _from is 0x0, but we can't account that address.\r\n  \t  \tif (_from != address(0)) {\r\n  \t    \townershipTokenCount[_from]--;\r\n  \t    \t// clear any previously approved ownership exchange\r\n  \t    \tdelete heroIndexToApproved[_tokenId];\r\n  \t  \t}\r\n  \t  \t// Emit the transfer event.\r\n  \t  \temit Transfer(_from, _to, _tokenId);\r\n  \t}\r\n\r\n\r\n  \t//*** CUSTOM FUNCTIONS ***\r\n\r\n  \t// @notice Returns all the relevant information about a specific hero.\r\n  \t// @param _tokenId The tokenId of the hero of interest.\r\n  \tfunction getHero(uint256 _tokenId) public view returns (\r\n  \t\tuint256 tokenId,\r\n    \tstring heroName,\r\n    \tuint256 level,\r\n    \tuint256 heroAttack,\r\n    \tuint256 heroDefense,\r\n    \tuint256 bounty,\r\n    \tuint256 sellingPrice,\r\n    \taddress owner\r\n  \t) {\r\n    \tHero storage hero = heroes[_tokenId];\r\n    \ttokenId = hero.tokenId;\r\n    \theroName = hero.name;\r\n    \tlevel = hero.level;\r\n    \theroAttack = hero.heroAttack;\r\n    \theroDefense = hero.heroDefense;\r\n    \tbounty = hero.bounty;\r\n    \tsellingPrice = heroIndexToPrice[_tokenId];\r\n    \towner = heroIndexToOwner[_tokenId];\r\n  \t}\r\n\r\n  \tfunction getBoss(uint256 _tokenId) public view returns (\r\n  \t\tuint256 tokenId,\r\n    \tstring bossName,\r\n    \tuint256 bossAttack,\r\n    \tuint256 bossDefense,\r\n    \tuint256 freeStatsAward\r\n  \t) {\r\n    \tBoss storage boss = bosses[_tokenId];\r\n    \ttokenId = boss.tokenId;\r\n    \tbossName = boss.name;\r\n    \tbossAttack = boss.bossAttack;\r\n    \tbossDefense = boss.bossDefense;\r\n    \tfreeStatsAward = boss.freeStatsAward;\r\n  \t}\r\n\r\n\t// Private method for creating Hero\r\n  \tfunction _createHero(string _name, address _owner, uint256 _price, uint256 _level, uint256 _heroAttack, uint256 _heroDefense) private returns (string) {\r\n    \tuint256 newHeroId = tokens.length;\r\n    \t// It's probably never going to happen, 4 billion tokens are A LOT, but\r\n    \t// let's just be 100% sure we never let this happen.\r\n    \trequire(newHeroId == uint256(uint32(newHeroId)));\r\n\r\n    \t// 0 for bounty, freeStats, battlesWon and battlesLost \r\n    \tuint256 _lastTimeBought = now;\r\n    \theroes[newHeroId] = Hero(newHeroId, _name, _level, _heroAttack, _heroDefense, 0, 0, 0, 0, _lastTimeBought);\r\n\r\n    \temit Birth(newHeroId, _name, _owner);\r\n\r\n    \theroIndexToPrice[newHeroId] = _price;\r\n\r\n    \t// This will assign ownership, and also emit the Transfer event as\r\n    \t// per ERC721 draft\r\n    \t_transfer(address(0), _owner, newHeroId);\r\n\r\n    \ttokens.push(newHeroId);\r\n    \treturn _name;\r\n  \t}\r\n\r\n  \t// @dev Creates a new Hero\r\n  \tfunction createHero(string _name) public onlyOwner whenPaused {\r\n    \t_createHero(_name, address(this), startingPrice, 1, 0, 0);\r\n  \t}\r\n\r\n  \t// @dev Creates a new Hero with owner\r\n  \tfunction createHeroWithOwner(string _name, address _owner) public onlyOwner whenPaused {\r\n    \t_createHero(_name, _owner, startingPrice, 1, 0, 0);\r\n  \t}\r\n\r\n  \t// @dev Creates a new Premium Hero\r\n  \tfunction createPremiumHero(string _name, uint256 _level, uint256 _heroAttack, uint256 _heroDefense) public onlyOwner whenPaused {\r\n    \t_createHero(_name, address(this), premiumPrice, _level, _heroAttack, _heroDefense);\r\n  \t}\r\n\r\n  \t// @dev Creates a new Premium Hero with owner\r\n  \tfunction createPremiumHeroWithOwner(string _name, address _owner, uint256 _level, uint256 _heroAttack, uint256 _heroDefense) public onlyOwner whenPaused {\r\n    \t_createHero(_name, _owner, premiumPrice, _level, _heroAttack, _heroDefense);\r\n  \t}\r\n\r\n  \t// Private method for creating Boss\r\n  \tfunction _createBoss(string _name, uint256 _bossAttack, uint256 _bossDefense, uint256 _freeStatsAward) private returns (string) {\r\n    \tuint256 newBossId = gameBosses.length;\r\n    \t// It's probably never going to happen, 4 billion tokens are A LOT, but\r\n    \t// let's just be 100% sure we never let this happen.\r\n    \trequire(newBossId == uint256(uint32(newBossId)));\r\n\r\n    \tbosses[newBossId] = Boss(newBossId, _name, _bossAttack, _bossDefense, _freeStatsAward);\r\n\r\n    \tgameBosses.push(newBossId);\r\n\r\n    \treturn _name;\r\n  \t}\r\n\r\n  \t// @dev Creates a new Boss\r\n  \tfunction createBoss(string _name, uint256 _bossAttack, uint256 _bossDefense, uint256 _freeStatsAward) public onlyOwner whenPaused {\r\n    \t_createBoss(_name, _bossAttack, _bossDefense, _freeStatsAward);\r\n  \t}\r\n\r\n  \t// This function can be used by the owner of a token to modify the current price\r\n\tfunction modifyTokenPrice(uint256 _tokenId, uint256 _newPrice) external payable onlyHeroOwner(_tokenId) whenNotPaused {\r\n\t    require(_newPrice > startingPrice);\r\n\t    require(_newPrice < heroIndexToPrice[_tokenId]);\r\n\r\n\t    heroIndexToPrice[_tokenId] = _newPrice;\r\n\t}\r\n\r\n\t// upgradeStats for hero with ETH \r\n\tfunction upgradeStats(uint256 _tokenId, uint256 _statPoints, bool attackStat) external payable onlyHeroOwner(_tokenId) whenNotPaused {\r\n\t\tuint256 totalPrice = _statPoints.mul(statPrice);\r\n\t\trequire(msg.value == totalPrice);\r\n\r\n\t\tHero storage hero = heroes[_tokenId];\r\n\r\n\t\tif (attackStat) {\r\n\t\t\thero.heroAttack = hero.heroAttack.add(_statPoints);\r\n\t\t} else {\r\n\t\t\thero.heroDefense = hero.heroDefense.add(_statPoints);\r\n\t\t}\r\n\r\n\t\t// check if could level up by 1 level and level it up\r\n\t\tuint256 sumOfStats = hero.heroAttack + hero.heroDefense;\r\n\r\n\t\tif (sumOfStats >= levelTresholds[hero.level]) {\r\n\t\t\thero.level = hero.level.add(1);\r\n\t\t}\r\n\r\n\t\t// increase price of Hero for bought stats\r\n\t\theroIndexToPrice[_tokenId] = heroIndexToPrice[_tokenId].add(msg.value);\r\n\r\n\t\t// bounties, fees\r\n\t\tuint256 fee = SafeMath.div(SafeMath.mul(msg.value, 100), 20);\r\n\t\tuint256 bossBounty = SafeMath.div(SafeMath.mul(msg.value, 100), 30);\r\n\t\tuint256 heroBounty = SafeMath.div(SafeMath.mul(msg.value, 100), 50);\r\n\r\n\t\towner.transfer(fee);\r\n\t\tbossPool = bossPool.add(bossBounty);\r\n\t\thero.bounty = hero.bounty.add(heroBounty);\r\n\t}\r\n\r\n\t// upgradeStats for hero with earned freeStats\r\n\tfunction upgradeStatsFree(uint256 _tokenId, uint256 _statPoints, bool attackStat) external onlyHeroOwner(_tokenId) whenNotPaused {\r\n\t\tHero storage hero = heroes[_tokenId];\r\n\r\n\t\trequire(hero.freeStats >= _statPoints);\r\n\r\n\t\tif (attackStat) {\r\n\t\t\thero.heroAttack = hero.heroAttack.add(_statPoints);\r\n\t\t} else {\r\n\t\t\thero.heroDefense = hero.heroDefense.add(_statPoints);\r\n\t\t}\r\n\r\n\t\t// check if could level up and level it up\r\n\t\tuint256 sumOfStats = hero.heroAttack + hero.heroDefense;\r\n\r\n\t\tif (sumOfStats >= levelTresholds[hero.level]) {\r\n\t\t\thero.level = hero.level.add(1);\r\n\t\t}\r\n\t}\r\n\r\n\t// @dev for leveling multiple levels up, when someone buys higher amount of attack/def\r\n\t// must be done manually by owner\r\n\tfunction multipleLevelUp(uint256 _tokenId, uint256 _toLevel) external onlyHeroOwner(_tokenId) whenNotPaused {\r\n\t\tHero storage hero = heroes[_tokenId];\r\n\t\t// you shouldn't level down yourself, lol\r\n\t\trequire(_toLevel > hero.level);\r\n\t\trequire(levelTresholds[_toLevel] > 0);\r\n\r\n\t\t// check if could level up and level it up\r\n\t\tuint256 sumOfStats = hero.heroAttack + hero.heroDefense;\r\n\r\n\t\tif (sumOfStats >= levelTresholds[_toLevel]) {\r\n\t\t\thero.level = _toLevel;\r\n\t\t}\r\n\t}\r\n\r\n\tfunction attackBoss(uint256 _heroId, uint256 _bossId) external onlyHeroOwner(_heroId) whenNotPaused notHotPotato {\r\n\t\t// can only defeat once\r\n\t\trequire(!bossDefeated[_heroId][_bossId]);\r\n\t\trequire( heroes[_heroId].heroAttack > bosses[_bossId].bossDefense );\r\n\r\n\t\t// transfer 3% from bossPool\r\n\t\tuint256 reward = SafeMath.div(SafeMath.mul(bossPool, 100), 3);\r\n\t\theroIndexToOwner[_heroId].transfer(reward);\r\n\r\n\t\t// add freeStats reward\r\n\t\theroes[_heroId].freeStats = heroes[_heroId].freeStats.add(bosses[_bossId].freeStatsAward);\r\n\r\n\t\tbossPool = bossPool.sub(reward);\r\n\t\tbossDefeated[_heroId][_bossId] = true;\r\n\t}\r\n\r\n\tfunction attackPlayer(uint256 _heroId, uint256 _targetHeroId) external onlyHeroOwner(_heroId) whenNotPaused notHotPotato {\r\n\t\t// can't attack your own heroes\r\n\t\trequire( heroIndexToOwner[_heroId] != heroIndexToOwner[_targetHeroId]);\r\n\r\n\t\tHero storage heroAttacker = heroes[_heroId];\r\n        Hero storage heroDefender = heroes[_targetHeroId];\r\n\r\n\t\trequire( heroAttacker.heroAttack > heroDefender.heroDefense );\r\n\r\n\t\t// transfer 25% from bounty\r\n\t\tuint256 reward = SafeMath.div(SafeMath.mul(heroDefender.bounty, 100), 25);\r\n\t\theroIndexToOwner[_heroId].transfer(reward);\r\n\t\theroDefender.bounty = heroDefender.bounty.sub(reward);\r\n\t}\r\n\r\n\t// owner of hero can claim their own bounty after 7 days\r\n\tfunction claimOwnBounty(uint256 _tokenId) external onlyHeroOwner(_tokenId) {\r\n\t\tHero storage hero = heroes[_tokenId];\r\n\t\trequire(now >= hero.lastTimeBought + canClaimCooldown);\r\n\r\n\t\theroIndexToOwner[_tokenId].transfer(hero.bounty);\r\n\t\thero.bounty = 0;\r\n\t}\r\n\r\n\tfunction lastTimeBought(uint256 _tokenId) public view returns(uint256) {\r\n\t\treturn (now - heroes[_tokenId].lastTimeBought);\r\n\t}\r\n\r\n\t// add or modify level treshold\r\n\tfunction addModifyLevel(uint256 _level, uint256 _expTreshold) external onlyOwner whenPaused {\r\n\t\tlevelTresholds[_level] = _expTreshold;\r\n\t}\r\n\r\n\t//*** CUSTOM EVENTS ***\r\n\tevent StartHotPotato();\r\n  \tevent StopHotPotato();\r\n\r\n\r\n  \t//*** CUSTOM MODIFIERS ***\r\n  \t// @dev actions specified only for hero owner\r\n  \tmodifier onlyHeroOwner(uint256 _tokenId) {\r\n  \t\trequire(heroIndexToOwner[_tokenId] == msg.sender);\r\n    \t_;\r\n  \t}\r\n\r\n  \tmodifier hotPotato() {\r\n  \t\trequire(hotPotatoPhase);\r\n  \t\t_;\r\n  \t}\r\n\r\n  \tmodifier notHotPotato() {\r\n  \t\trequire(!hotPotatoPhase);\r\n  \t\t_;\r\n  \t}\r\n\r\n  \tfunction startHotPotato() onlyOwner public {\r\n\t    hotPotatoPhase = true;\r\n\t    hotPotatoTimer = now;\r\n\r\n\t    emit StartHotPotato();\r\n\t}\r\n\r\n\tfunction stopHotPotato() public {\r\n\t\trequire(now >= hotPotatoTimer + hotPotatoCooldown);\r\n\r\n\t    hotPotatoPhase = false;\r\n\t    emit StopHotPotato();\r\n\t}\r\n}",
  "sourcePath": "D:\\STRONKI\\cryptowars\\contracts\\Heroes.sol",
  "compiler": {
    "name": "solc",
    "version": "0.4.23+commit.124ca40d.Emscripten.clang"
  },
  "schemaVersion": "2.0.0",
  "updatedAt": "2018-05-26T12:27:03.442Z"
}